{
  "_format": "hh3-artifact-1",
  "contractName": "ResearchFi",
  "sourceName": "contracts/ResearchFi.sol",
  "abi": [
    {
      "anonymous": false,
      "inputs": [
        {
          "indexed": true,
          "internalType": "uint256",
          "name": "proposalId",
          "type": "uint256"
        },
        {
          "indexed": false,
          "internalType": "uint256",
          "name": "milestoneIndex",
          "type": "uint256"
        }
      ],
      "name": "MilestoneReleased",
      "type": "event"
    },
    {
      "anonymous": false,
      "inputs": [
        {
          "indexed": true,
          "internalType": "uint256",
          "name": "id",
          "type": "uint256"
        },
        {
          "indexed": false,
          "internalType": "string",
          "name": "cid",
          "type": "string"
        },
        {
          "indexed": true,
          "internalType": "address",
          "name": "researcher",
          "type": "address"
        },
        {
          "indexed": false,
          "internalType": "string",
          "name": "title",
          "type": "string"
        },
        {
          "indexed": false,
          "internalType": "uint256",
          "name": "timestamp",
          "type": "uint256"
        }
      ],
      "name": "ProposalSubmitted",
      "type": "event"
    },
    {
      "anonymous": false,
      "inputs": [
        {
          "indexed": true,
          "internalType": "uint256",
          "name": "proposalId",
          "type": "uint256"
        },
        {
          "indexed": true,
          "internalType": "address",
          "name": "funder",
          "type": "address"
        },
        {
          "indexed": false,
          "internalType": "uint256",
          "name": "amount",
          "type": "uint256"
        }
      ],
      "name": "Staked",
      "type": "event"
    },
    {
      "inputs": [
        {
          "internalType": "uint256",
          "name": "id",
          "type": "uint256"
        }
      ],
      "name": "getProposal",
      "outputs": [
        {
          "components": [
            {
              "internalType": "string",
              "name": "cid",
              "type": "string"
            },
            {
              "internalType": "address",
              "name": "researcher",
              "type": "address"
            },
            {
              "internalType": "string",
              "name": "title",
              "type": "string"
            },
            {
              "internalType": "uint256",
              "name": "timestamp",
              "type": "uint256"
            },
            {
              "internalType": "bool",
              "name": "funded",
              "type": "bool"
            },
            {
              "internalType": "uint256",
              "name": "aiScore",
              "type": "uint256"
            }
          ],
          "internalType": "struct ResearchFi.Proposal",
          "name": "",
          "type": "tuple"
        }
      ],
      "stateMutability": "view",
      "type": "function"
    },
    {
      "inputs": [
        {
          "internalType": "address",
          "name": "researcher",
          "type": "address"
        }
      ],
      "name": "getReputation",
      "outputs": [
        {
          "internalType": "uint256",
          "name": "proposalCount",
          "type": "uint256"
        },
        {
          "internalType": "uint256",
          "name": "stakedReceived",
          "type": "uint256"
        },
        {
          "internalType": "uint256",
          "name": "reputation",
          "type": "uint256"
        }
      ],
      "stateMutability": "view",
      "type": "function"
    },
    {
      "inputs": [
        {
          "internalType": "address",
          "name": "researcher",
          "type": "address"
        }
      ],
      "name": "getResearcherProposals",
      "outputs": [
        {
          "internalType": "uint256[]",
          "name": "",
          "type": "uint256[]"
        }
      ],
      "stateMutability": "view",
      "type": "function"
    },
    {
      "inputs": [
        {
          "internalType": "uint256",
          "name": "",
          "type": "uint256"
        },
        {
          "internalType": "uint256",
          "name": "",
          "type": "uint256"
        }
      ],
      "name": "milestones",
      "outputs": [
        {
          "internalType": "string",
          "name": "description",
          "type": "string"
        },
        {
          "internalType": "bool",
          "name": "released",
          "type": "bool"
        },
        {
          "internalType": "uint256",
          "name": "amount",
          "type": "uint256"
        }
      ],
      "stateMutability": "view",
      "type": "function"
    },
    {
      "inputs": [
        {
          "internalType": "uint256",
          "name": "",
          "type": "uint256"
        }
      ],
      "name": "proposals",
      "outputs": [
        {
          "internalType": "string",
          "name": "cid",
          "type": "string"
        },
        {
          "internalType": "address",
          "name": "researcher",
          "type": "address"
        },
        {
          "internalType": "string",
          "name": "title",
          "type": "string"
        },
        {
          "internalType": "uint256",
          "name": "timestamp",
          "type": "uint256"
        },
        {
          "internalType": "bool",
          "name": "funded",
          "type": "bool"
        },
        {
          "internalType": "uint256",
          "name": "aiScore",
          "type": "uint256"
        }
      ],
      "stateMutability": "view",
      "type": "function"
    },
    {
      "inputs": [
        {
          "internalType": "address",
          "name": "",
          "type": "address"
        },
        {
          "internalType": "uint256",
          "name": "",
          "type": "uint256"
        }
      ],
      "name": "researcherProposals",
      "outputs": [
        {
          "internalType": "uint256",
          "name": "",
          "type": "uint256"
        }
      ],
      "stateMutability": "view",
      "type": "function"
    },
    {
      "inputs": [
        {
          "internalType": "uint256",
          "name": "proposalId",
          "type": "uint256"
        }
      ],
      "name": "stakeOnProposal",
      "outputs": [],
      "stateMutability": "payable",
      "type": "function"
    },
    {
      "inputs": [
        {
          "internalType": "string",
          "name": "cid",
          "type": "string"
        },
        {
          "internalType": "string",
          "name": "title",
          "type": "string"
        },
        {
          "internalType": "uint256",
          "name": "aiScore",
          "type": "uint256"
        }
      ],
      "name": "submitProposal",
      "outputs": [],
      "stateMutability": "nonpayable",
      "type": "function"
    },
    {
      "inputs": [],
      "name": "totalProposals",
      "outputs": [
        {
          "internalType": "uint256",
          "name": "",
          "type": "uint256"
        }
      ],
      "stateMutability": "view",
      "type": "function"
    },
    {
      "inputs": [
        {
          "internalType": "address",
          "name": "",
          "type": "address"
        }
      ],
      "name": "totalStaked",
      "outputs": [
        {
          "internalType": "uint256",
          "name": "",
          "type": "uint256"
        }
      ],
      "stateMutability": "view",
      "type": "function"
    }
  ],
  "bytecode": "0x6080604052348015600e575f5ffd5b50610f2c8061001c5f395ff3fe60806040526004361061008f575f3560e01c80639c89a0e2116100575780639c89a0e214610175578063a1c92b9a146101af578063a78d80fc146101ce578063ba8554c7146101e1578063c7f758a814610200575f5ffd5b8063013cf08b146100935780631095ee99146100cd5780631c376c63146100e257806356046b1a146101105780639bfd8d611461013c575b5f5ffd5b34801561009e575f5ffd5b506100b26100ad366004610a18565b61022c565b6040516100c496959493929190610a5d565b60405180910390f35b6100e06100db366004610a18565b610393565b005b3480156100ed575f5ffd5b506101016100fc366004610aaf565b6104ac565b6040516100c493929190610acf565b34801561011b575f5ffd5b5061012f61012a366004610b0e565b610576565b6040516100c49190610b2e565b348015610147575f5ffd5b50610167610156366004610b0e565b60036020525f908152604090205481565b6040519081526020016100c4565b348015610180575f5ffd5b5061019461018f366004610b0e565b6105df565b604080519384526020840192909252908201526060016100c4565b3480156101ba575f5ffd5b506101676101c9366004610b70565b610640565b3480156101d9575f5ffd5b505f54610167565b3480156101ec575f5ffd5b506100e06101fb366004610bdd565b61066b565b34801561020b575f5ffd5b5061021f61021a366004610a18565b6107ff565b6040516100c49190610c50565b5f818154811061023a575f80fd5b905f5260205f2090600602015f91509050805f01805461025990610ccb565b80601f016020809104026020016040519081016040528092919081815260200182805461028590610ccb565b80156102d05780601f106102a7576101008083540402835291602001916102d0565b820191905f5260205f20905b8154815290600101906020018083116102b357829003601f168201915b505050600184015460028501805494956001600160a01b039092169491935091506102fa90610ccb565b80601f016020809104026020016040519081016040528092919081815260200182805461032690610ccb565b80156103715780601f1061034857610100808354040283529160200191610371565b820191905f5260205f20905b81548152906001019060200180831161035457829003601f168201915b50505050600383015460048401546005909401549293909260ff909116915086565b5f5481106103db5760405162461bcd60e51b815260206004820152601060248201526f125b9d985b1a59081c1c9bdc1bdcd85b60821b60448201526064015b60405180910390fd5b5f341161041b5760405162461bcd60e51b815260206004820152600e60248201526d04d757374207374616b65203e20360941b60448201526064016103d2565b3460035f5f848154811061043157610431610d03565b5f9182526020808320600160069093020191909101546001600160a01b031683528201929092526040018120805490919061046d908490610d2b565b9091555050604051348152339082907f18dcd430020e4d4899772fd94a8b40451dc5044dfb70bc46b532eeae431c864f9060200160405180910390a350565b6001602052815f5260405f2081815481106104c5575f80fd5b905f5260205f2090600302015f9150915050805f0180546104e590610ccb565b80601f016020809104026020016040519081016040528092919081815260200182805461051190610ccb565b801561055c5780601f106105335761010080835404028352916020019161055c565b820191905f5260205f20905b81548152906001019060200180831161053f57829003601f168201915b505050506001830154600290930154919260ff1691905083565b6001600160a01b0381165f908152600260209081526040918290208054835181840281018401909452808452606093928301828280156105d357602002820191905f5260205f20905b8154815260200190600101908083116105bf575b50505050509050919050565b6001600160a01b0381165f9081526002602090815260408083205460039092528220549091610615662386f26fc1000083610d44565b61062084600a610d63565b61062a9190610d2b565b90506064811115610639575060645b9193909250565b6002602052815f5260405f208181548110610659575f80fd5b905f5260205f20015f91509150505481565b5f80546040805160e06020601f8a01819004028201810190925260c0810188815292939290918291908a908a90819085018382808284375f920191909152505050908252503360208083019190915260408051601f890183900483028101830182528881529201919088908890819084018382808284375f9201829052509385525050426020808501919091526040840183905260609093018790525083546001810185559381522081519192600602019081906107299082610dda565b5060208201516001820180546001600160a01b0319166001600160a01b03909216919091179055604082015160028201906107649082610dda565b5060608201516003820155608082015160048201805460ff191691151591909117905560a090910151600590910155335f818152600260209081526040808320805460018101825590845291909220018390555182907f70f129150561aba01e9790a31fee7311a9054f2872fe6348fb5fefcfee216103906107ef908a908a908a908a904290610ebd565b60405180910390a3505050505050565b61083f6040518060c00160405280606081526020015f6001600160a01b03168152602001606081526020015f81526020015f151581526020015f81525090565b5f54821061088f5760405162461bcd60e51b815260206004820152601760248201527f50726f706f73616c20646f6573206e6f7420657869737400000000000000000060448201526064016103d2565b5f82815481106108a1576108a1610d03565b905f5260205f2090600602016040518060c00160405290815f820180546108c790610ccb565b80601f01602080910402602001604051908101604052809291908181526020018280546108f390610ccb565b801561093e5780601f106109155761010080835404028352916020019161093e565b820191905f5260205f20905b81548152906001019060200180831161092157829003601f168201915b505050918352505060018201546001600160a01b0316602082015260028201805460409092019161096e90610ccb565b80601f016020809104026020016040519081016040528092919081815260200182805461099a90610ccb565b80156109e55780601f106109bc576101008083540402835291602001916109e5565b820191905f5260205f20905b8154815290600101906020018083116109c857829003601f168201915b505050918352505060038201546020820152600482015460ff161515604082015260059091015460609091015292915050565b5f60208284031215610a28575f5ffd5b5035919050565b5f81518084528060208401602086015e5f602082860101526020601f19601f83011685010191505092915050565b60c081525f610a6f60c0830189610a2f565b6001600160a01b03881660208401528281036040840152610a908188610a2f565b60608401969096525050911515608083015260a0909101529392505050565b5f5f60408385031215610ac0575f5ffd5b50508035926020909101359150565b606081525f610ae16060830186610a2f565b93151560208301525060400152919050565b80356001600160a01b0381168114610b09575f5ffd5b919050565b5f60208284031215610b1e575f5ffd5b610b2782610af3565b9392505050565b602080825282518282018190525f918401906040840190835b81811015610b65578351835260209384019390920191600101610b47565b509095945050505050565b5f5f60408385031215610b81575f5ffd5b610b8a83610af3565b946020939093013593505050565b5f5f83601f840112610ba8575f5ffd5b50813567ffffffffffffffff811115610bbf575f5ffd5b602083019150836020828501011115610bd6575f5ffd5b9250929050565b5f5f5f5f5f60608688031215610bf1575f5ffd5b853567ffffffffffffffff811115610c07575f5ffd5b610c1388828901610b98565b909650945050602086013567ffffffffffffffff811115610c32575f5ffd5b610c3e88828901610b98565b96999598509660400135949350505050565b602081525f825160c06020840152610c6b60e0840182610a2f565b60208501516001600160a01b0316604085810191909152850151848203601f19016060860152909150610c9e8282610a2f565b915050606084015160808401526080840151151560a084015260a084015160c08401528091505092915050565b600181811c90821680610cdf57607f821691505b602082108103610cfd57634e487b7160e01b5f52602260045260245ffd5b50919050565b634e487b7160e01b5f52603260045260245ffd5b634e487b7160e01b5f52601160045260245ffd5b80820180821115610d3e57610d3e610d17565b92915050565b5f82610d5e57634e487b7160e01b5f52601260045260245ffd5b500490565b8082028115828204841417610d3e57610d3e610d17565b634e487b7160e01b5f52604160045260245ffd5b601f821115610dd557805f5260205f20601f840160051c81016020851015610db35750805b601f840160051c820191505b81811015610dd2575f8155600101610dbf565b50505b505050565b815167ffffffffffffffff811115610df457610df4610d7a565b610e0881610e028454610ccb565b84610d8e565b6020601f821160018114610e3a575f8315610e235750848201515b5f19600385901b1c1916600184901b178455610dd2565b5f84815260208120601f198516915b82811015610e695787850151825560209485019460019092019101610e49565b5084821015610e8657868401515f19600387901b60f8161c191681555b50505050600190811b01905550565b81835281816020850137505f828201602090810191909152601f909101601f19169091010190565b606081525f610ed0606083018789610e95565b8281036020840152610ee3818688610e95565b915050826040830152969550505050505056fea26469706673582212209ff2c97c06486a00d91c18334f66233bc110f82db7a677e2c0ee3bf630e53c8a64736f6c634300081c0033",
  "linkReferences": {},
  "deployedLinkReferences": {},
  "immutableReferences": {},
  "inputSourceName": "project/contracts/ResearchFi.sol",
  "buildInfoId": "solc-0_8_28-1a0fbce669e2f74111d61c37e4a7e156995b8655"
}